:1000000000100020891B0000851B0000851B0000DC
:10001000851B0000851B0000851B0000851B000060
:10002000851B0000851B0000851B0000851B000050
:10003000851B0000851B00008F6D0000851B0000E4
:10004000851B0000851B0000851B0000851B000030
:10005000851B0000851B0000851B0000851B000020
:10006000851B0000851B0000490C0000851B00005B
:10007000851B0000851B0000851B0000851B000000
:10008000851B0000851B0000A90C0000851B0000DB
:10009000851B0000851B0000851B0000851B0000E0
:1000A000851B0000851B0000851B0000851B0000D0
:1000B000851B0000851B0000057F0000851B0000DC
:1000C000851B0000851B0000851B0000851B0000B0
:1000D000851B0000851B0000851B0000851B0000A0
:1000E000851B0000851B0000851B0000851B000090
:1000F000851B0000851B0000851B0000851B000080
:10010000851B0000851B0000851B000010B5054CF9
:10011000237833B9044B13B10448AFF300800123B3
:10012000237010BDA81C00200000000020BC0000AF
:1001300008B5034B1BB103490348AFF3008008BD6A
:1001400000000000AC1C002020BC0000A3F5803A99
:10015000704700BF174B002B08BF134B9D46FFF79E
:10016000F5FF00218B460F461348144A121A08F077
:1001700069FF0E4B002B00D098470D4B002B00D091
:1001800098470020002104000D000D48002802D0EF
:100190000C48AFF3008008F01BFF2000290001F09D
:1001A00017FB08F001FF00BF00000800000000007E
:1001B000000000000010002040110020F8F3012092
:1001C00000000000000000001FB509486A464FF417
:1001D000007105F003FC074A1368013313609DF8B2
:1001E000003013B1044808F0DBFF05B05DF804FBF4
:1001F0001C620120D0A901207CA500002DE9F04F50
:100200002E4CDFF8C890DFF8C880DFF8C8A00023C4
:1002100089B02380A37001238DF80F30002704AB31
:10022000009300231A461946484605F0E3FA02F007
:1002300032FD8346504601F0BEF90546204801F0E4
:10024000BAF90646584602F02CFD04AB0093002391
:100250001A461946404604F0E3FF012D1FD1E7700E
:1002600084F8605084F85F70A6F108035E425E4136
:10027000002204AB012113488DF80F5084F85D6013
:1002800004F0C8FE04AA0021404605F06BF99DF871
:100290001030002BC3D00C4808F082FFBEE7022DBF
:1002A00009D19DF80F30012BDAB204D184F85F2018
:1002B00084F86070D8E784F85F70F9E708A6012039
:1002C000C4A90120D4200120B1A5000094A30120DD
:1002D00064A30120BCA901202DE9F04F00258FB0B7
:1002E000CDE903555D4C08952F4600220AAB0092DC
:1002F000032101935A485B4E4FF4847304F080FC51
:100300000AA804F02FFC00220AAB114656480093BD
:10031000134604F085FF00220AAB114600935348B0
:10032000134604F07DFF524B05211B68B3FBF1F32C
:100330007380504B197801294FF000022AD902210D
:100340005970042F07F101035FFA83FB0AAB17D83A
:100350004948042104F05EFEE278002A72D0039B33
:10036000591CC9B23227B7FBF2F2934203910AAB90
:100370004FF0000215DA01213F4804F04BFE1CE06B
:100380003D48082104F046FEBBF10A0F28BF4FF09C
:10039000000BE1E738480AAB082104F03BFEBB46FE
:1003A000DAE73548022104F035FEE378B7FBF3F7CE
:1003B000039BBB42A8BF002303933378012B44D097
:1003C000022B45D0042B46D0A3F1080253425341DF
:1003D000B2792A4813445BB28268B37106681A4442
:1003E0001E4494F860300660826023B1E378312BBC
:1003F0009CBF0533E37094F85F304BB1E37808930A
:100400000121002384F85F3084F86110E3700493C5
:1004100094F861101A4B002900F03A81049F8FBBB9
:10042000043A089F9A604268BF08093AA771089F7A
:100430005A60C2687F080E36E7711E600B3ADA60B8
:10044000049131E00AAB022196E76FF00103BFE7A8
:100450004FF0FF33BCE70223BAE700BF08A6012034
:10046000D420012000A6012064A30120FC2001204B
:10047000D0A90120ECA50120BCDF0020F0A50120BF
:100480007CA6012094F906709868E2791E68C01B6A
:10049000013A9860586852B2801A5860D868E27180
:1004A000F61B821A1E60DA60E278A848C2F1820266
:1004B00042608222C26041B3A548D3F800A0DF6841
:1004C000D3F804C006460822D6F888329A4500F3CD
:1004D000F08004EB020E9EF82A30012B00F2E98036
:1004E000D6F884824745C0F2D880E045C0F2D58076
:1004F0000133DBB28EF82A30002284F86120022B0F
:1005000003D1944A13780133137094F85D20A388C3
:10051000002A00F08B81092B40F28D810A3BA380D9
:1005200001238D4A84F85E300A21A388B3FBF1F3DE
:10053000C3F1820353608223D3600123874E84F882
:100540006230002D00F0798194F90800B268637A76
:100550003168121A013BB26072685BB2D21A7260E3
:10056000F2686372091A3160D31A7D4AF3607D4BD9
:1005700090681F68B8420ADB7B4991F90630192B55
:10058000C5BF744B04215B425970D8BF8B71DFF833
:10059000C0C1126865460D21D5F8D8309A4200F3E3
:1005A000638163189B7A012B00F25E816E4991F999
:1005B000063013F1190FBBBF664B04215B42597023
:1005C000A8BF8B71F1683368822900F35481822BB4
:1005D000CCBF00250125D6F80880474502DC267AE5
:1005E0007642267294F90860DFF88CE14FF0000A39
:1005F0004FF00E09DCF8E8729F4203DB9EF838707A
:10060000012F07D9DCF8E8719F4207DB9EF82870BC
:10061000012F03D8764276B24FF0010AB9F10109F1
:10062000ACF1100C0EF1FF3EE4D1BAF1000F00D096
:10063000267294F85E60002E00F01F8102F10E0613
:100640000F329A4207DBB04505DD454A5268233A2E
:10065000914280F22A819E4208DA0F30984205DBEF
:100660003F4B5B68233B9942A8BF00253F480AAA3D
:10067000002104F077FF3E480AAA002104F072FF2F
:100680009DF8283013B13B4808F08AFD5F462CE600
:100690009622C3E901221A60D1E6D6F88CE2F4452D
:1006A00007DC774505DB01332244DBB282F82A30D0
:1006B00022E7013AA6F110067FF406AF244E0C2281
:1006C000D6F8C8319A451BDC04EB020E9EF81A30AE
:1006D000012B15D8D6F8C481474506DBC44504DC98
:1006E0000133DBB28EF81A3006E7D6F8CCE1F445D8
:1006F00006DC774504DB01332244DBB29376FBE66C
:10070000013AA6F11006DBD11023D0F8082192455A
:1007100034DCE618B27A012A30D8D0F804E1774503
:1007200009DBF44507DC0132D2B2B272002384F84F
:100730006130022AE4E6D0F80C61B4451EDCB74211
:100740001CDB01322344D2B29A72EFE76CA601207F
:10075000BCA60120ECA50120ACA601209CA601208E
:10076000F0A501208CA6012000A6012064A3012091
:10077000FC200120D8A5000008A60120013BA0F123
:100780001000C2D14A4A079310784A4A06928E4610
:100790009846494A702606FB0329002626F00202E5
:1007A000012A01D0052E01D1032B28D1D9F8082028
:1007B000924524DC069A925D0592012A1FD8D9F849
:1007C00004200992974213DB944511DC059AC3EB90
:1007D000C30E0132A644D2B27644022A86F83A20E9
:1007E00002D10230C0B2079188464FF0000E0BE0F4
:1007F000D9F80C200992944501DC9742E6DA0136DB
:10080000072E09F11009C9D1069A01330732042BCA
:100810000692BED1B8F1000F01D084F861E0079BC9
:10082000002B3FF472AE224B18706EE6B3F5957F45
:1008300001D80233A380002373E608F0C9FC11231A
:1008400090FBF3F303EB0313C01A1B4B65721A6E94
:1008500032609A6EB2605A6EDB6EC0F108001A32D6
:10086000207272601A3380E60131102905F11005FB
:100870007FF492AEA6E60025ADE69A420CDB424537
:1008800007DC0E4E7668B14203DB094B08225A7032
:10089000ECE69A427FF4EAAE9842FFF6E7AE074BE9
:1008A0005B689942FFF6E2AEEFE70025DEE600BFA7
:1008B000ECA5012042A60120BCA30120F0A5012047
:1008C0009B4B5F222DE9F04F9A6064221A60994B8E
:1008D000DFF8A0B2984C69229A606E221A60974A9B
:1008E00010230025A7B05370A94609AB009300233D
:1008F0001A461946584604F093FC09AB00930023AE
:100900008F481A46194604F08BFC204606F0D0FCAE
:1009100020B18C4840F28A4101F0A4FB00236FF023
:100920007F40C4E901038448DFF84CA2864E06F0FC
:100930006BFC8649804806F020FE854B5B8804935B
:100940000027BB1951464FF000089A7A012A06D8B1
:100950002046CDE9051306F010FEDDE9051308F188
:100960000108B8F1030F03F1100301F58071ECD118
:100970000137102F0AF1100AE3D1DFF800A24FF07F
:10098000000806F13A0202EB08035146002713F86B
:10099000010B012808D82046CDE90632059106F062
:1009A000ECFDDDE9063205990137072F01F1100151
:1009B000EDD108F10708B8F11C0F0AF1700AE2D175
:1009C000DFF8BC812046414606F0D7FD614A64212C
:1009D0000DA808F04BFC0123CDE90173D8F80020E5
:1009E000D8F80830134403EBD3735B100B22009349
:1009F0000DA90023204606F0E4FE5749204606F0E4
:100A0000BCFD4B49204606F070FD96F85F30494921
:100A10002046002B6DD006F0B0FD96F85E60002EEB
:100A20006DD04E4A64210DA808F020FC0C23012152
:100A3000CDE90131D8F80830D8F80020134403EB91
:100A4000D3735B10143B009300230A220DA92046A8
:100A500006F0B7FE4249204606F08FFD374B5B7823
:100A6000042B61D13F4809AA4FF4007104F0B6FF8E
:100A7000324B5B78022B22D19DF810601DB906F134
:100A80000A035FFA83F9384AA9EB060364210DA82B
:100A900008F0ECFB01250523CDE90135192300936E
:100AA000042200230DA9204606F08BFEB14506D195
:100AB0002C4809AA4FF4007104F090FF002509AA00
:100AC0000021584604F04EFD09AA00211C4804F0FC
:100AD00049FD06F04FFB09AA0021642005F0D0FD76
:100AE0009DF82430002B3FF400AF204808F058FB5D
:100AF000FBE6F378322B8ED006F0F7FC8DE71C4A2C
:100B000064210DA808F0B2FB0C230122CDE90132CB
:100B1000D8F80830D8F80020134403EBD3735B10E7
:100B2000143B0093334690E7082BA1D19AE700BF0E
:100B3000ACA601206CA60120D4A90120ECA50120BF
:100B4000FC20012003A6000008A601208CA601209D
:100B500000A601200CA600007CA601200EA6000025
:100B60009CA60120B45D002016A600002DA6000062
:100B700014A6000064A30120BCA60120BCA3012090
:100B8000F0A501204FF6FF73C340DB0710B5044604
:100B900004D4054840F2B53101F064FA034B234414
:100BA0009B00186810BD00BF5BA6000060088510A0
:100BB000F0B5164F164C87B0164D002202AE0092CB
:100BC0004FF484730F210196384604F019F830462B
:100BD00003F0C8FF04280AD11023C5F8FC309DF8A3
:100BE0000830002BE9D00C4808F0DAFAE4E70828CE
:100BF00003D11023C4F8FC30F1E7012801D12023F0
:100C0000EBE70228EBD12023F4E700BFBCDF002094
:100C100000A0004400A00046C1A6000008B50620C0
:100C2000FFF7B0FF28B10620FFF7ACFF40B102206C
:100C300008BD0720FFF7A6FF0028F4D00120F7E742
:100C40000720FFF79FFFF2E71FB5094B4022C3F8CB
:100C50002424FFF7E3FF0146064800F09FFC6A46A4
:100C60004FF40071044804F0B9FE05B05DF804FBD0
:100C700000A00040BCA9012094A3012008B50720D2
:100C8000FFF780FF28B10720FFF77CFF40B1042069
:100C900008BD0620FFF776FF0028F4D00820F7E70C
:100CA0000620FFF76FFFF2E71FB5094B8022C3F85C
:100CB0002424FFF7E3FF0146064800F06FFC6A4674
:100CC0004FF40071044804F089FE05B05DF804FBA0
:100CD00000A00040C4A9012094A301201FB507492A
:100CE00007486A4604F0D4FB9DF8003013B105486C
:100CF00008F056FA05B05DF804FB00BFEEA6000050
:100D000064A3012006A700001FB5074907486A46EB
:100D100004F0BEFB9DF8003013B1054808F040FA1E
:100D200005B05DF804FB00BF31A70000FC200120E6
:100D30004BA7000000B589B004AB0393094B0193A6
:100D400000220223009308490848029205F048FE59
:100D50009DF8103013B1064808F022FA09B05DF88A
:100D600004FB00BFC90100007CA700004462012011
:100D70008FA700001FB5074907486B46002204F003
:100D8000CDFE9DF8003013B1044808F009FA05B013
:100D90005DF804FBB6A70000B45D0020C9A7000001
:100DA0001FB5074907486B46002204F0B7FE9DF8BF
:100DB000003013B1044808F0F3F905B05DF804FB06
:100DC000FCA700001C62012013A800001FB5074902
:100DD00007486B46002204F0A1FE9DF8003013B1D5
:100DE000044808F0DDF905B05DF804FB3EA80000FA
:100DF00094A3012013A800001FB5074907486B46BC
:100E0000002204F08BF89DF8003013B1044808F07C
:100E1000C7F905B05DF804FB59A80000D4200120F3
:100E200076A800001FB5074907486B46002204F06A
:100E300075F89DF8003013B1044808F0B1F905B019
:100E40005DF804FBB1A80000BCDF0020D0A80000C2
:100E500000B58FB00AAB089301220023CDE906321A
:100E60000A214FF48052CDE9032140F299120292F7
:100E7000094A01921622059300920849084A094836
:100E800005F060F99DF8283013B1074808F088F99B
:100E90000FB05DF804FB00BF746201200DA90000D3
:100EA000FD01000074A2012020A9000000B58FB050
:100EB0000AAB089301220023CDE906320A214FF440
:100EC0008052CDE9032140F299120292094A01921F
:100ED0001622059300920849084A094805F032F99C
:100EE0009DF8283013B1074808F05AF90FB05DF8A3
:100EF00004FB00BF2C21012052A90000F9100000C2
:100F00002C61012065A9000000B58FB00AAB0893E1
:100F100001220023CDE906320A214FF48052CDE9A7
:100F2000032140F299120292094A01921622059376
:100F300000920849084A094805F004F99DF828304C
:100F400013B1074808F02CF90FB05DF804FB00BF9F
:100F5000E4DF002095A90000D9020000E41F012071
:100F6000A3A9000000B58FB00AAB089301220023AB
:100F7000CDE906320A214FF48052CDE9032140F237
:100F800099120292094A019214220593009208498B
:100F9000084A094805F0D6F89DF8283013B10748EB
:100FA00008F0FEF80FB05DF804FB00BFC41C002081
:100FB000CBA90000E9120000C45C0020D6A9000003
:100FC00000B58FB00AAB089301220023CDE90632A9
:100FD0000A214FF48052CDE9032140F29912029286
:100FE000094A01921622059300920849084A0948C5
:100FF00005F0A8F89DF8283013B1074808F0D0F89C
:101000000FB05DF804FB00BFCC9E0020FEA90000DD
:10101000B10B0000CCDE00200EAA000000B58FB09E
:101020000AAB089301220023CDE906320A214FF4CE
:101030008052CDE9032140F299120292094A0192AD
:101040001622059300920849084A094805F07AF8E3
:101050009DF8283013B1074808F0A2F80FB05DF8EA
:1010600004FB00BFDC5D00203BAA0000C1080000BB
:10107000DC9D00204CAA000038B500F0CFFA1D4CD2
:101080000025E8B200F0B6FA60550135042DF8D11C
:1010900023780BB1A3781BB923783BB1E3782BB14C
:1010A000002323706370A370E37038BD637813B1BD
:1010B000A378002BF4D1637813B1E378002BEFD140
:1010C00023784BB163783BB1002323706370A37026
:1010D000E37001236370E8E7A378002BE5D0E378A1
:1010E000002BE2D0002323706370A370E370012310
:1010F000A370DAE7CCA901207FB51F481F4E204D11
:10110000204C02A905F0D0FB02AB009300231A4645
:101110001946304604F06EFB02AB009300231A46DA
:101120001946284604F07CF8FFF7A6FF2278164BF4
:10113000A2B101221A70022102AB0022134803F06F
:1011400069FF02AA0021284604F00CFA9DF8083035
:10115000002BD9D00E4808F023F8D5E762780AB101
:101160000222E7E7A2780AB10822E3E7E2780AB1AF
:101170000422DFE71022DDE7446201201C62012027
:10118000FC200120CCA9012000A60120D4200120B0
:101190007BAA00002C4B7D219622F0B57820C3E974
:1011A00002120022C3E90002284B1C211A46052521
:1011B0000A24C2E90114481D07318C291560D0604A
:1011C00002F11002F5D1214A1C210C251124C2E99B
:1011D0004114481D07317029C2F80051C2F80C01B2
:1011E00002F11002F3D11C2213241820C3E981203C
:1011F000511D0732542AC3F80042C3F80C1203F100
:101200001003F3D1124C0022C2EBC2056E1D23461F
:101210000520002121F00207012F01D0052901D16D
:10122000032A04D1471DC3E901571860DE6001316C
:10123000072900F1070003F11003EBD10132042A62
:1012400004F17004E0D1F0BD8CA60120BCA6012001
:10125000BCA30120214B7D222D2130B5C3E9001212
:1012600041248222C3E902421D4A10235370002305
:1012700013701C4A93714FF4967282801C46C3709F
:101280008371C371002200EB03118D180132102A03
:10129000AC72FAD10133032BF4D100210B46C1EB20
:1012A000C10202440131052982F83A3082F83B300C
:1012B00082F83C3082F83D3082F83E3082F83F3090
:1012C00082F84030EBD180F85D3080F85E3080F8F5
:1012D0005F3080F8603080F8613030BDF0A50120CB
:1012E000ECA5012000A601202DE9F047504CDFF8C5
:1012F0007091A2B0002305AD4E4800951A461946DC
:1013000004F078FA204605F0D3FF20B14A4840F2B5
:10131000945100F0A7FE6FF07F4200234448DFF8AD
:101320004481C4E9012305F06FFF00231A461946E2
:101330004846009503F074FF0023404800951A4684
:10134000194603F06DFF98F80160042E67D13C4AFE
:10135000642109A807F08AFF05220123CDE90123B2
:10136000192200920023042209A9204606F029FA36
:10137000012700264FF0050A324A88F801706421DF
:1013800009A807F073FF33463A46CDE9006A029791
:1013900009A9204606F015FA2B4A642109A807F08E
:1013A00065FFCDE901A73346022209A90096204630
:1013B00006F007FA254A642109A807F057FFCDE98E
:1013C00001A73346032209A90096204606F0F9F941
:1013D00005F0D0FE1E4FDFF890A098F80130012BE9
:1013E00088D1384600F0E7F80646504600F0E3F8AA
:1013F000012EF2D12A464846002104F0B3F82A46CD
:101400000E48002104F0AEF82A460021642005F0C1
:1014100037F9FFF7BFFE0F48FFF71CFFDDE7082E87
:1014200001D10D4A94E7022EA2D10C4A90E700BFE9
:10143000D4A90120B45D002003A60000FC200120F7
:10144000ABAA0000D7AA0000E1AA0000F1AA0000A0
:10145000BCA9012008A60120B7AA0000C3AA000069
:1014600064A30120ECA50120C4A901207FB500F0F0
:1014700065F900F023F900F031FA20B1314840F26B
:101480002F5100F0EFFD002005F04AFE20B12D485D
:1014900040F2335100F0E6FD2B4805F009FF20B182
:1014A000284840F2375100F0DDFD274C6FF07F42B5
:1014B00000232046C4E9012305F0A6FE2349204667
:1014C00006F072F90525012600231A46CDE90156DA
:1014D0001F490095204606F074F91E490095002327
:1014E0000222CDE90156204606F06BF905F042FED6
:1014F0001948FFF7AFFEFFF74DFE184800F032F82D
:10150000174800F03DF8FFF7A3FCFFF733FCFFF7A7
:101510005DFCFFF745FCFFF7E1FBFFF7F5FBFFF78D
:1015200081FCFFF769FCFFF705FCFFF71BFDFFF7E8
:10153000BDFCFFF7E9FCFFF743FD04B0BDE87040D8
:10154000FFF76CBD03A60000D4A90120C0B50000C0
:1015500000AB000019AB000008A60120BCA90120C7
:10156000C4A901200023054A03704260194642685D
:10157000D15401330A2BFAD1704700BF00AA0120D1
:101580000023054A0370426019464268D154013372
:101590000A2BFAD1704700BF0AAA012003780A2B50
:1015A0001FBF4268D154037801331ABF0370012072
:1015B0004FF0FF3070477FB501460078C0B14B68EF
:1015C000421E1C780A7001AA03F10905104613F89F
:1015D000016F00F8016BAB42F9D100238DF80D309B
:1015E000486812F8015BC55401330A2BF8D1204634
:1015F00004B070BD074A084952F8203052F8202044
:1016000051F82000A3EB920398422CBF0020012048
:10161000704700BF14AA012024AA0120F0B54FF0A2
:101620008040204C204F214E85B000F005FD002366
:1016300023702378032B06D94FF0804005B0BDE816
:10164000F04000F0E3BC2378194DF95C4FF0804086
:1016500000F0C2FC0021012369626A4631700A2051
:101660006B6005F00DF802236B606B6A22781149FC
:10167000D2B241F8223022780F49D2B251F822205A
:10168000934207D940F6B83293429EBF2278D2B235
:1016900041F822300123337023780133DBB2237009
:1016A000C7E700BF34AA012050AB000035AA0120D3
:1016B0000084014024AA012014AA012030B5164D4F
:1016C0000FCD87B06C460FC495E8030084E8030093
:1016D0001248012100F066FD1148012100F062FD71
:1016E0001048012100F05EFD01214FF48A4000F016
:1016F00059FD0D4B0D4A1A604FF6FF72DA610C4A24
:101700001A670C4B0C4A1A6569464FF0804000F08E
:101710001BFC07B030BD00BF38AB000040410500E6
:101720000012040000A20400008401400000010A2D
:101730000100002A00600E400003100013B54FF0B6
:101740000111052001F0FAFE0422114600230520B4
:1017500001F0B6FF4FF00111052001F0EFFE052169
:1017600000230422084601F0ABFF4FF001110520D1
:1017700001F0E4FE002301220621052001F0A0FF74
:101780004FF00111052001F0D9FE002301220721AD
:10179000052001F095FF0D4B4FF480221A604FF4A5
:1017A000806201241A60062223461146CDE90044D6
:1017B000052001F0E7FE0722CDE90044234611464B
:1017C000052001F0DFFE02B010BD00BF00E100E027
:1017D00008B506F0BBFBFFF749FE06F0C4FB00208E
:1017E00008BD704708B50421112001F0BBF8094875
:1017F000012100F0D7FC0848022101F0B3F80748A6
:10180000022101F0AFF80648022101F0ABF80020F8
:1018100008BD00BF30253E0002001E00030020006E
:101820000500240008B5224B01225A64214BD3F84D
:10183000FC20214B120E12D14AF6E851C3F8901148
:10184000D3F8981141F00401C3F89811C3F890211E
:10185000D3F8642142F40052C3F8642101E0012A64
:10186000F6D0164A136A23F4441343F48813136220
:10187000A2F58052D2F8A43143F4F843C2F8A4315F
:1018800006F032F800F040F805F0CCFF05F0EEFF6E
:1018900006F016F8FFF7A6FF05F0DAFF00F028F8CB
:1018A00007F01CF902F040F9BDE8084002F04EB91B
:1018B00000000E400081E00F00300E4000400E405E
:1018C00002F068B900F004B806F0E0B8704770475D
:1018D000014800F0EFB900BF54AB000008B5042286
:1018E00001230F21032001F0EBFE002008BD0000C2
:1018F00008B50448012100F055FCBDE80840FFF799
:1019000070BF00BF00350A000148012100F04ABC49
:1019100000350A002DE9F0411A4E04468846174664
:101920000FCE86B06D460FC596E8030085E803002C
:1019300015482568012100F035FC6068012100F0A0
:1019400031FC617B207B0023042201F0B9FE617A27
:10195000207A0023042201F0B3FE28466946CDF820
:101960000880ADF8107001F0EDFF237CA27B1B0610
:1019700043EA0223AB6700200A236B6706B0BDE889
:10198000F08100BF6CAB000000350A0070B506683E
:101990000C468D18AC4201D1002070BD14F8011B1B
:1019A000304602F029F8F5E7026813699B06FCD57A
:1019B0007047000013B5044606F068F9247B002345
:1019C0000122CDE900326400034AB0FBF4F1034880
:1019D00006F0BEF802B010BDE119000038AA0120DF
:1019E000024B4FF40052C3F8A820704700A00040FB
:1019F00073B50F4B0F4E4FF48045C3F89C5004460F
:101A0000407B06F0B3FA042302220DF106013046B2
:101A1000ADF80630FFF7BAFF3046FFF7C5FFA07BF1
:101A200006F0A4FA044B0020C3F89C5002B070BD2D
:101A300000A000460410002000A0004438B5044671
:101A400001211248124D00F0ADFBA168114800229F
:101A5000FFF760FF002304220E21032001F030FE77
:101A6000002304220D21032001F02AFE94E80F0038
:101A700085E80F00084B012220461A70FFF79AFFF5
:101A80002046FFF7B5FF002038BD00BF00350A0033
:101A900058AA01200410002054AA01202DE9F74F74
:101AA0000688DFF8A4B0984603795E43254B1446B8
:101AB0004FF48042C3F89C200134A4B20546407B19
:101AC0000F4606F053FA230243F001031E48ADF817
:101AD000063002220DF106010134FFF757FF240200
:101AE000F610A4B24FF0000908F1FF3AC1450ED13B
:101AF0001548FFF759FFA87B06F038FA134B4FF44F
:101B000080420020C3F89C2003B0BDE8F08F394626
:101B100032465846FFF73AFFCA4514BF44F0FF0368
:101B20004FF6FF7302220DF10601584604F580744A
:101B3000ADF806303744FFF729FF09F10109A4B2D7
:101B4000D4E700BF00A000460410002000A000441D
:101B5000034B04481B78002B08BF0020704700BFD0
:101B600054AA012058AA01201FB5054B0FCB6C4683
:101B700084E80F002046FFF761FF04B010BD00BFEE
:101B800084AB0000FEE7000008B500F069F8064BE2
:101B90000649074A8B4201D3FEF7DCFA52F8040BE0
:101BA00043F8040BF6E700BF0010002040110020AE
:101BB00028BC000000487047005A6202104AD2F860
:101BC000943003F00703023B032B13D8DFE803F044
:101BD0000C14020E0B4B1B68D2F80001C0F304205A
:101BE0000130B3FBF0F07047074BF4E7074B1B687D
:101BF0005B08F1E7054BEEE74FF40043ECE700BF6D
:101C000000400E40241000201C1000202010002056
:101C100008B5FFF7D3FF054BD3F80831C3F308230A
:101C20000133B0FBF3F0024B186008BD00400E40DA
:101C300018100020014B1868704700BF1C100020CE
:101C4000054B1860054BD3F8943003F00703022BC3
:101C500001D1FFF7DDBF70471C10002000400E408F
:101C6000044B054A9A60D3F8882042F47002C3F806
:101C70008820704700ED00E0000000004FF40040B5
:101C800070474FF47A707047014B1868704700BF77
:101C90002410002005490A681318054883428CBFA8
:101CA0004FF0FF320B601046704700BF2810002035
:101CB00000000420D0E900031847000038B50D46A5
:101CC000044618B3012824D0022825D0032826D0A2
:101CD00004280ED0052825D0831F012B09D90828F8
:101CE00023D0092823D00A2803D10723EB40DB07A0
:101CF00004D410484FF4797100F0B4F930200E4B41
:101D00000121444301FA05F51D5138BD40F2FF336E
:101D1000ECE74FF6C073E9E740F6FF73E6E74FF4F0
:101D20007F43E3E74FF6FF73E0E70F23DEE74FF46F
:101D30004043DBE75BA600000CA0004438B50D462D
:101D4000044618B3012824D0022825D0032826D021
:101D500004280ED0052825D0831F012B09D9082877
:101D600023D0092823D00A2803D10723EB40DB071F
:101D700004D4104840F2134100F074F930200E4BA7
:101D80000121444301FA05F51D5138BD40F2FF33EE
:101D9000ECE74FF6C073E9E740F6FF73E6E74FF470
:101DA0007F43E3E74FF6FF73E0E70F23DEE74FF4EF
:101DB0004043DBE75BA600000CA0004610B5012104
:101DC0000446094800F0EEF90848012100F0EAF95C
:101DD000A37820786178B3FA83F35B09042201F0D9
:101DE0006FFC002010BD00BF4041050000350A0017
:101DF0000346007859789B780BB9FFF75FBFFFF770
:101E00009DBF0346007859789B780BB9FFF796BFC2
:101E1000FFF754BF38B5047845782CB3012C26D091
:101E2000022C27D0032C28D0042C0ED0052C27D030
:101E3000A31F012B09D9082C25D0092C25D00A2C49
:101E400003D10723EB40DB0704D4114840F22E41B5
:101E500000F008F93022544304F18044012304F5D2
:101E60002044AB40A36138BD40F2FF33EAE74FF6B0
:101E7000C073E7E740F6FF73E4E74FF47F43E1E721
:101E80004FF6FF73DEE70F23DCE74FF44043D9E75B
:101E90005BA6000070B504784578064654B3012C63
:101EA0002BD0022C2CD0032C2DD0042C0ED0052CA2
:101EB0002CD0A31F012B09D9082C2AD0092C2AD0F9
:101EC0000A2C03D10723EB40DB0704D4134840F26C
:101ED000FE3100F0C7F830235C43114B234405EB7F
:101EE000C305AD00B3782868C0B213B9B0FA80F06A
:101EF000400970BD40F2FF33E5E74FF6C073E2E7FB
:101F000040F6FF73DFE74FF47F43DCE74FF6FF73E4
:101F1000D9E70F23D7E74FF44043D4E75BA600008F
:101F20000CA0100270B505460E46144600F0ACFE3B
:101F3000296881EA040202EA06044C402C60BDE8EC
:101F4000704000F0A5BE0000B0F1804F38B50446E7
:101F50000D4606D01D4B984203D01D48A22100F02B
:101F600081F82B693F2B03D91948B62100F07AF884
:101F7000EB683F2B03D91648B72100F073F86B6864
:101F80003F2B03D91248B82100F06CF86B682A780F
:101F90001B0643EAC27343F400432360EA682B7ACA
:101FA00043EA0243A3622A696B7A43EA0243E3628B
:101FB000AA7A084B43EA0273636004F1424404F5D1
:101FC000801464012B7D236038BD00BF00040040F5
:101FD00094AB000000FD0004B0F1804F13B50A4639
:101FE000044608D0074B984205D001910648F521D8
:101FF00000F038F8019AFF21201D02B0BDE8104022
:10200000FFF790BF0004004094AB0000B0F1804F98
:1020100010B5044607D0064B984204D0054840F25C
:102020001B1100F01FF8236823F00103236010BD8B
:102030000004004094AB0000B0F1804F10B504469E
:1020400007D0064B984204D005484FF49C7100F02D
:1020500009F8236843F00103236010BD0004004029
:1020600094AB0000FEE700000C4B984210D90C4BDB
:10207000984210D9022201230A490B640A49D1F877
:10208000003123F0807343EA0263C1F800317047E6
:1020900000221346F0E70122FBE700BF0048E801F9
:1020A0000090D0030000C84300400E4038B5114BEB
:1020B0005B68114B00221C46C9B21D798D4202D1CA
:1020C0001D68854212D20132052A03F10803F4D1BA
:1020D0000A4841F23A41FFF7C5FF032205494B6820
:1020E00023F0407343EA02634B6038BD04EBC20245
:1020F0005279F3E700000E40F4AC0000FAAB0000A8
:102100001F2810B5044604D9034840F22F11FFF7E9
:10211000A9FF0120A04010BD5FAC000038B5074CFE
:1021200041F67133256C2364FFF744FD0021FFF76E
:10213000BDFF0DB10023236438BD00BF00000E4079
:10214000044BDB6B5B0604D4034AD2F8C830002B87
:10215000FBD1704700300E400000C64308B5FFF7C2
:10216000EFFF024B5868C0F3014008BD00300E403D
:10217000044BD3F84421D20703D4D3F840211042B2
:10218000FBD1704700400E4038B5054C41F6713325
:10219000256C2364FFF78AFF0DB10023236438BD4B
:1021A00000000E4038B5C0F30323013B092B24D8AF
:1021B000DFE803F02A2D2323051619231C20154CD4
:1021C0000023C0F3043513B11846FFF7D1FF04F123
:1021D000424404F5801405EBC404A400216038BD1A
:1021E0000D4C0123EDE70D4C1023EAE70C4C4FF4A6
:1021F0008033E6E70B4C0023E3E7BDE838400A48AC
:1022000041F6D711FFF72EBF084C0023D9E7084C41
:102210000023D6E7B0400E40E0400E40E8400E40BC
:10222000F0400E4050410E40FAAB000000400E401E
:10223000C0400E4008B5C0F30313013B092B60D822
:10224000DFE803F0050B0F195F5F1F233C532E4B94
:10225000D3F80001C0F3042008BD2B4BD3F81401C0
:10226000F8E7294BD3F80001C0F300600130FFF715
:1022700047FF0138F0E7244BD3F80C01C0F30820E6
:10228000EAE7214BD3F80801F8E7204B984209D040
:102290001F4B98420CD041F67B311E48FFF7E2FEFF
:1022A0000020D9E7184BD3F8200100F00F00DEE73B
:1022B000154BD3F82001C0F30110D8E7164B984214
:1022C00008D003F5B01303F58053984206D041F6C9
:1022D0009F31E2E70C4BD3F82801ECE70A4BD3F827
:1022E0002801C0F301200430C1E70C4B984205D10E
:1022F000054BD3F8300100F00300ADE741F6AE31F5
:10230000CBE741F6D331C8E700400E408006160007
:1023100080162E00FAAB000090171A00A0091400D6
:1023200008B5FFF787FF013008BD000000F00F007F
:10233000013808B5072844D8DFE800F0040F194336
:10234000232D4335264BD3F8943003F00703023B8B
:10235000052B3DD8234AD05C08BD214BD3F88030F3
:1023600003F00703013B032B34D81F4AF3E71C4B50
:10237000D3F8843003F00703013B032B2AD81B4A10
:10238000E9E7174BD3F8883003F00703013B032B31
:1023900020D8174ADFE7124B1B6F13F0010F0CBF59
:1023A00007200920D8E70E4BD3F85C3103F0300347
:1023B000202B11D0302B11D0102B14BF012007205F
:1023C000CAE70C4841F62771FFF74CFE0020C3E72F
:1023D0000520C1E70120BFE70420BDE70820BBE7D7
:1023E00000400E40C7AC0000CDAC0000D1AC0000F6
:1023F000CDAC0000FAAB000038B52C4B9842054636
:102400000AD02B4B984207D02A4B984204D02A4836
:1024100041F23A51FFF726FE2846FFF787FF234B8C
:102420009D42044611D0224B9D4212D0214B9D4229
:1024300013D1224BD3F8804004F00704042C2DD88C
:10244000DFE804F02A11151D19001C4BD3F8844055
:10245000F2E71A4BD3F88840EEE7174841F269518A
:10246000FFF700FEEAE7BDE83840FFF707BCBDE82C
:102470003840FFF709BCBDE83840FFF702BCFFF762
:102480009DFB0E4B0446D3F80001C0F30060013001
:10249000FFF736FEB4FBF0F4204638BD064841F2A3
:1024A000BB51FFF7DFFD0024F6E700BF030020006B
:1024B0000500240002001E00FAAB000000400E40A0
:1024C00038B500F47813B3F5B01F05467FD02ED889
:1024D000B3F5402F69D011D8B3F5802F54D006D86A
:1024E00043B1B3F5003F5AD041F607311AE0B3F5D6
:1024F000202FF9D1BDE83840FFF760BBB3F5801F4E
:1025000000F0A280B3F5A01F57D0B3F5602FEBD138
:102510005B48FFF70BFF072800F096800928E9D0F9
:1025200041F2FC215748FFF79DFD002036E0B3F54E
:10253000381F5AD013D8B3F5001F5FD00AD8B3F5AF
:10254000D01F5DD0B3F5F01FCED14F48BDE8384065
:10255000FFF752BFB3F5101FC6D14C48F6E7B3F5ED
:10256000481F57D0B3F5781F00F08280B3F5401FA5
:10257000BAD14748FFF740FF464B0446D3F828013D
:10258000C0F3012004302BE0FFF718FB414BD3F8D8
:102590000C31C3F308230133B0FBF3F038BDFFF770
:1025A0000DFB3C4BD3F80831F3E7FFF707FB394B42
:1025B000D3F81431C3F30423EDE73448FFF71CFFCD
:1025C000344BD3F8303103F00303D840E6E72E480C
:1025D000FFF712FF2F4B0446D3F8200100F00F0045
:1025E000FFF78EFDB4FBF0F0D8E72748FFF704FFB4
:1025F000284BD3F82031C3F30113E6E72448A5E7BD
:102600002348FFF7F9FE234B0446D3F82801C0F313
:102610000110E5E72048FFF789FE0138072824D894
:1026200001A353F820F000BF2B2500006B2600000B
:102630006B2600004F2600006B2600006B26000072
:102640004926000057260000144B1868A6E7BDE88D
:102650003840FFF7EFBAFFF7B1FA0E4BD3F800316D
:10266000C3F3042303FB000098E741F2333159E739
:10267000FFF7A4FA04462846FFF752FEB2E700BF70
:1026800006000E00FAAB000002001E000500240048
:102690000300200000400E40B80032002C10002043
:1026A000014B1880704700BF30100020013838B54A
:1026B0000C46032864D8DFE800F002441A2FB1F575
:1026C000007F04D3324842F22571FFF7CBFC314A38
:1026D000C4F30804D2F86838002BFBD12E4A136AE1
:1026E00023F4FF7323F001032343136238BD7F29D2
:1026F00004D9274842F23271FFF7B4FC254A04F0AE
:102700007F01D2F86038002BFBD1234B1C6924F0E9
:102710007F040C431C61E9E77F2904D91C4842F27D
:102720004D71FFF79FFC1B4A04F07F01D2F864381B
:10273000002BFBD1184B9C6924F07F040C439C6157
:10274000D4E7154DD5F890305B0704D5104842F218
:102750005D71FFF787FC6B6A23F0300343F01003D1
:102760006B62C4F3C311CB1C2A6B0C490F2B01EA1B
:10277000020128BF0F23214341EA03712963B5E712
:10278000BDE83840024842F27771FFF76BBC00BFEA
:10279000FAAB00000020C84300400E4000F8FF0FD5
:1027A000022810B50C4604D0144842F28F71FFF78E
:1027B00059FC134B5B6A13F0300F1BD0202C16D042
:1027C000302C17D0B4B10D4842F2AA71FFF74AFC81
:1027D0000C4B0B4AD2F8901033EA0101FAD15B029C
:1027E0004ABFD2F8A0000120C0F3802010BD4FF4F2
:1027F0000003EEE74FF44003EBE700BFFAAB000045
:1028000000400E40FF33E107022808B50CD129B182
:10281000094B4FF48060C3F8A80059664AB1BDE87F
:1028200008400220FFF7BCBF044842F2E071FFF706
:1028300019FC012008BD00BF00400E40FAAB0000AB
:1028400004282DE9F04704460F4691461FD83D4B1A
:102850003D4A13F800A03D4B13F80080F1B93C4B02
:1028600033F810301366012303FA08F8D2F89030D9
:1028700013EA080FFAD1B9F1000F5AD00125324AF4
:1028800005FA0AF5D2F890302B42FBD151E0BDE8B1
:10289000F047304842F27461FFF7E4BB2E4B022848
:1028A00033F8106047D1536A13F0300F43D12B4BEC
:1028B000DB6B5A0504D4274842F28361FFF7D2FB51
:1028C000214A536ADB0705D5536A23F0300343F0EE
:1028D00010035362224D1C4BA8441E664FEA880821
:1028E000D8F80030002BFBD0B9F1000F21D05544AF
:1028F000AD002B68002BFCD0022C1AD1CFB1124FA7
:10290000796A11F0010118D0012220212046FFF739
:102910007BFFD7F89C40012200210220FFF790FFA7
:10292000C4F30A010220FFF7C1FE3E662B68002BAC
:10293000FCD0BDE8F0870027CCE72046FFF730FF4A
:10294000E7E700BFD5AC000000400E40DAAC000065
:10295000EAAC0000FAAB0000E0AC000000300E4032
:102960008004F210112838B50C460FD000F00F008B
:102970000138072800F2EB80DFE810F02400660041
:102980009A00E9007D00B400E900C200042912D1D8
:10299000FFF750F90546A8B10021284600F082FA59
:1029A000023C0A2C45D8DFE804F04A47313744445A
:1029B00044443D0F4D00052904D1664B1D68664B0C
:1029C0009D42E9D80025EBE70320052401221146AA
:1029D000FFF736FFFFF7A2FB0DB1FFF7B1FB5F4B2F
:1029E0005C67FFF715F90446FFF7E8F8FFF73CFBD3
:1029F000FFF7B4FB01462046FFF7C6FB002D5DD173
:102A000028460121BDE8384000F04CBA5448FFF791
:102A10002BFB02200446D9E75148FFF725FB012490
:102A20000320D3E741F6E871BDE838404D48FFF791
:102A300019BB41F6ED71F7E701200324C6E700203A
:102A40000424C3E70724C5E7062933D14548464D8A
:102A500042F22C01FFF706FB424842F23C01FFF72D
:102A600001FBFFF7ABF8FFF7FFFA404B0122C3F879
:102A70000826032321E006293D4DEDD0013C092C19
:102A80002BD801A353F824F0E12A0000BF2A00004C
:102A9000CD2A0000DB2A0000DB2A0000632A0000A8
:102AA000DB2A0000DB2A0000DB2A0000B92A000034
:102AB000304DE3E72C4DE1E704232B6038BD0122C4
:102AC00011460020FFF7BCFE0223F6E70122114663
:102AD0001046FFF7B5FE0123EFE742F26701A3E7D7
:102AE0000023EAE7072904D0092906D042F2F101C0
:102AF0009AE71A4B00221A67E0E7184B0122FAE71F
:102B00004C1E072C1ED8DFE804F0201D1D161D1DCD
:102B10000F0403221149D1F85C3123F0300343EA5A
:102B20000213C1F85C31C9E7012211460420FFF706
:102B300087FE0122EEE7012211460220FFF780FE08
:102B40000222E7E742F24F116EE70022E2E742F28B
:102B5000262169E720100020002D310100400E40A1
:102B60000148E801FAAB000080400E400010C84365
:102B700088400E4084400E4010B504461120FFF7F7
:102B8000D5FB042804D1274842F20F51FFF76AFA17
:102B9000012200210220FFF753FE63781BB9A378BE
:102BA0000BB9E37823B11F4842F24B51FFF75AFAB1
:102BB000237C012B04D11B4842F25251FFF752FAF9
:102BC000194A217C536A23F00103022908BF43F00C
:102BD00001035362154B2178C3F8A014637AA188CE
:102BE00043EAC123D362136BA07A217A03F07F6397
:102BF0000343E08843EAC02343EAC11303310F29AA
:102C000028BF0F2143EA01731363A37B617B1B0180
:102C100043EA0133E17B0B43217B43EA01435363E6
:102C200010BD00BFFAAB000000400E400000C843DA
:102C300070B505461120FFF779FB022804D10F4833
:102C400042F2CD51FFF70EFA0D4E0E4BB26B2C78BF
:102C500013401C436B7844EAC324AB7844EA036412
:102C6000EB7844EA0324B36BA34205D00021012290
:102C70000846FFF7E5FDB46370BD00BFFAAB000086
:102C800000400E4080E4FFF8EFF3108072B670470A
:102C900000B962B67047EFF31180602383F31188A7
:102CA000704780F311887047034B5868C0F30800E1
:102CB000003818BF0120704700ED00E0EFF31083EB
:102CC000DB0706D4EFF311805F2894BF00200120BA
:102CD0007047012070470000034BD86B80F0400024
:102CE000C0F38010704700BF00300E4038B542EA94
:102CF0000323B3F5007F05460C463ED019D8B3F543
:102D0000807F36D00AD883B3012B21D01F4840F6EC
:102D10008E11FFF7A7F9002213461FE040F20112BF
:102D20009342F3D11A4BD3F824321A0EC3F307435C
:102D300014E0B3F5407F24D040F20132934210D02A
:102D400040F201229342E1D1114BD3F8283202E044
:102D50000F4BD3F82432C3F30722DBB22B6022607F
:102D600038BD0B4BD3F82832DFE7094BD3F81C32C0
:102D7000F1E7074BD3F81C32D7E7054BD3F82032E5
:102D8000E9E7034BD3F82032CFE700BF1CAD0000CA
:102D90000081E00F08B5FFF79FFF20B1024AD2F88B
:102DA000C830002BFBD108BD0000C6431A4B0228D7
:102DB00010B5D3F830320C4612D0032813D00128B6
:102DC00014BFDBB2C3F307231B0323F47042ECB937
:102DD0005AB140F61D111148FFF744F9002010BD0B
:102DE000C3F30743F0E71B0EEEE70D49CA6E22F46A
:102DF00070421343CB660120F1E70949D1F8EC207A
:102E000022F470421343C1F8EC30F4E7002AF4D006
:102E100040F62911DFE700BF0081E00F1CAD000084
:102E200000300E40F8B504460F46FFF755FF78B363
:102E3000FFF7B0FF174B5B68C3F301439C4227D0F9
:102E4000154BD3F80061FEF7B9FE022C05460FD1F1
:102E5000124BC6F3042606FB00069E4204D9104816
:102E600040F23161FFF7FEF802212846FFF78CF9A6
:102E7000C4F1020210239340064A13610FB1FFF719
:102E800089FF2CB921462846BDE8F840FFF77CB9F8
:102E9000F8BD00BF00300E4000400E40002D310153
:102EA0001CAD000013B50246FFF716FFC8B152B9BA
:102EB0000D4B0191D3F80041FEF780FEC4F30422CC
:102EC000019902FB0002094B1B7843B1084B9A425F
:102ED00005D8022002B0BDE81040FFF7A3BF0020D4
:102EE000F8E702B010BD00BF00400E406EAA0120FE
:102EF000002D31010378134A002B437870B514BFBD
:102F000004260026002B8378946914BF022500252F
:102F1000002B037924F03F0443EA0403C47814BF70
:102F200008210021012C08BF43F0010333432B4348
:102F30000B4393611368417923F4403343EA01431F
:102F4000136070BD00300E40224B4AF6E85210B5B7
:102F5000596B5A639A6FD207FCD41B6C13F00303AE
:102F60001EBF1D4A0124C2F8B44A834204D110B9DD
:102F7000194BC3F8B40A10BD032B00D09BB9431EF4
:102F8000012B10D8134A4FF40023D362936FDB0751
:102F9000FCD4136C23F0030343F0010313640D4AC4
:102FA000536A1C03FCD50B4B9A6FD207FCD41A6CE6
:102FB00022F0030202431A649A6F12F00102FBD15D
:102FC0000038054C18BF01200129C4F8B40A08BF15
:102FD0005A63D0E700300E400000C6432DE9F04FA1
:102FE000A0F5E16389B00024B3F5966FCDE9024402
:102FF000CDE90444CDE9064406468A46934605D900
:1030000040F6EE215548FFF72DF8A3E0B0F5E16F4B
:10301000534B8CBF0122002249D1D3F81832C3F39D
:103020000721DBB2079104934FF416754FF49667AE
:1030300048E0BBF1000F0ED0D9F85C2022F4FE422C
:1030400022F00202B6F5E16F42EA012218BF022027
:103050000243C9F85C20BAF1000F26D020460021B7
:10306000FFF7A4FE044610B940F64B31CAE7012130
:103070004046FFF79BFE044610B940F65331C1E7C6
:10308000384A536EBD4238BF3D4623F4FF73E72DE7
:1030900023F0010328BFE725B6F5E16F18BF43F021
:1030A000010343EA4503536654E0012452E0D3F898
:1030B0001832190EC3F30743079104934FF4966532
:1030C0004FF4E167DFF89C90D9F84C400192C4F3CB
:1030D0000174234605A902A8FFF708FED9F8EC30D1
:1030E000019AC3F30128434606A903A8FFF7FEFD92
:1030F000049BF01B079FF91A4143B1FBF5F29918A5
:103100002CBF012300238F421ED3EBB9069A039FE5
:10311000D31B4343B3FBF5F3FF182CBF012300235C
:10312000BA4211D383B9059B029AA3EB020C00FBB0
:103130000CF0B0FBF5F555192CBF01200020AB4277
:1031400002D300283FF475AF044840F63C31FEF747
:1031500089FF0024204609B0BDE8F08F1CAD0000B7
:103160000081E00F00300E40334A08B5136FD16C78
:1031700011F0010F03F0060344D0002B42D01328B6
:1031800057D9143813288CBF102308232A49013B30
:10319000CA6C180322F47F4240EA03231343CB6432
:1031A000264BCA6C1B88C2F303222833013202EB80
:1031B000820003EB5303B3FBF0F3C86C013B072B16
:1031C00028BF072320F0EE6040EA036343F4801336
:1031D000CB641B4BB3F90030002B12DB03F128004A
:1031E000C0F34E030344500800EB4202B3FBF2F27B
:1031F0000B6D072A28BF072223F0700343EA02124F
:103200000A6508BDD16C01F00101194304D10928F8
:103210000FD90A380928B6E7D26CD20702D50BB904
:103220002728B0E7074840F69131FEF71BFF00233F
:10323000ACE70423AAE700BF00300E406AAA0120D1
:103240006CAA01201CAD00000C4BD3F8803910B5DE
:10325000044633B9012804D9094840F6AF31FEF7D6
:1032600001FF084A136F23F0070323431367064B3C
:10327000BDE810401888FFF777BF00BF0000C643C5
:103280001CAD000000300E4068AA012038B55A4B32
:1032900002229A639B6B03F00F039342044607D00C
:1032A000564840F64B21FEF7DDFE0025284638BD86
:1032B0000389C82B04D9514840F65521FEF7D2FEA8
:1032C000A28823899A4204D94C4840F65621FEF739
:1032D000C9FEB4F90C30C82B04DD484840F657212C
:1032E000FEF7C0FE6378012B55D1A388C82B04D903
:1032F00040F65B214148FEF7B5FEE28842F21073CA
:103300009A4204D93D4840F66821FEF7ABFEE388B7
:103310004A2B48D9B3F5FA7F47D340F6C3129342FC
:1033200094BF4FF000524FF040523349B4F90C00B3
:10333000CB6C23F0405323F001030028A8BF43F0D7
:1033400001031343CB64D1F8EC30A28843F44073FB
:10335000C1F8EC302A4B1A80CB6E43F08073CB66F9
:10336000284BD3F8800900B10420FFF76DFF264BEE
:1033700021891980254BB4F90C20A0881A80FFF709
:10338000F3FEA37BA3B1012B22D01C4840F6CE0153
:10339000FEF768FE0FE0022BAFD1A3880A2BACD951
:1033A0004FF42661A6E70022BFE74FF08052BCE74A
:1033B000114B174A9A65012260881146FFF70EFEED
:1033C000054640B90D4840F69F21FEF74BFE6DE7DC
:1033D000094B104AEEE7084AD36B43F48063D3638A
:1033E0006078FFF7B1FDA37AA3F120025342534165
:1033F000044AC2F8943759E700300E401CAD000073
:1034000068AA01200000C6436AAA01206CAA012014
:1034100077402057372110B738B50D46044618B30A
:10342000012824D0022825D0032826D004280ED035
:10343000052825D0831F012B09D9082823D0092866
:1034400023D00A2803D10723EB40DB0704D410481C
:1034500040F21341FEF706FE30200E4B012144439B
:1034600001FA05F51D5138BD40F2FF33ECE74FF688
:10347000C073E9E740F6FF73E6E74FF47F43E3E705
:103480004FF6FF73E0E70F23DEE74FF44043DBE73F
:103490005BA600000CA0004638B50D46044618B3E4
:1034A000012824D0022825D0032826D004280ED0B5
:1034B000052825D0831F012B09D9082823D00928E6
:1034C00023D00A2803D10723EB40DB0704D410489C
:1034D0004FF47971FEF7C6FD30200E4B01214443B5
:1034E00001FA05F51D5138BD40F2FF33ECE74FF608
:1034F000C073E9E740F6FF73E6E74FF47F43E3E785
:103500004FF6FF73E0E70F23DEE74FF44043DBE7BE
:103510005BA600000CA0004470B505460E4614469C
:10352000FFF7B2FB296881EA040202EA06044C4074
:103530002C60BDE87040FFF7ABBB0000032838B536
:1035400004460D4607D9042808D0052803D0A0F169
:103550000803022B02D835F0011303D008487D215F
:10356000FEF780FD3020604300F180402A464FF096
:103570000111BDE8384000F52040FFF7CDBF00BF86
:1035800081AD00002DE9F0410E4615461F46044668
:1035900000285FD0012860D0022861D0032862D0C3
:1035A00004280ED0052861D0831F012B09D90828D3
:1035B0005FD009285FD00A2803D10720F040C30755
:1035C00003D43748BF21FEF74DFD86EA050333F0EB
:1035D000030303D03248C121FEF744FD072D06F056
:1035E00003064FF00F0149D84FEA85082D4804FA29
:1035F00008F201FA08F1FFF78FFF03212A4806FAC3
:1036000008F201FA08F1FFF787FF1F2D03D92748B9
:103610009121FEF727FD264C2C44A4001F2D276086
:1036200003D922489121FEF71DFD9DF81830C4F8FA
:103630008030204A0123AB401F2DC2F8243403D927
:103640001A489121FEF70EFD9DF81C30C4F8003396
:10365000BDE8F08140F2FF30B0E74FF6C070ADE753
:1036600040F6FF70AAE74FF47F40A7E74FF6FF70E0
:10367000A4E70F20A2E74FF440409FE7A5F1080818
:103680004FEA88080C4804FA08F201FA08F1FFF73B
:1036900043FF0321094806FA08F201FA08F1B2E7EC
:1036A00081AD000000A4004008A40040E7AD000088
:1036B0008020851000A0004004A400400CA400401D
:1036C000F8B50D4616461F460446D8B301283CD02F
:1036D00002283DD003283ED004280ED005283DD036
:1036E000831F012B09D908283BD009283BD00A2881
:1036F00003D10723EB40DB0704D4274840F21D1118
:10370000FEF7B0FC26B1294620467FB3FFF784FEC2
:103710003020604300F18040072D00F5204028D87C
:103720004368AA000F21914023EA010306FA02F23E
:103730001343436076BB294620463FB3BDE8F840BB
:10374000FFF76ABE40F2FF33D4E74FF6C073D1E70C
:1037500040F6FF73CEE74FF47F43CBE74FF6FF739E
:10376000C8E70F23C6E74FF44043C3E7FFF794FED3
:10377000CEE7A5F1080382689B000F21994022EA59
:10378000010206FA03F313438360D3E7BDE8F84070
:10379000FFF782BEF8BD00BF81AD0000022838B53A
:1037A00004460D4603D911484C21FEF75BFC6B79AA
:1037B0001F2B03D90D484F21FEF754FCAB786A78D4
:1037C0009B0143EA82032A781343EA7843EA02130F
:1037D0002A7943EAC2236A7943EA0233AA79043494
:1037E00043EA42432401024A135138BD4CAE000063
:1037F00000200440014B1860704700BF0000844265
:10380000427801790378002A827870B514BF0426C3
:103810000026002AC27814BF10250025002A42790C
:103820004FEA023242EA012242EA0302837914BFDC
:1038300020240024002BC37942EA034343EA060311
:10384000027A43EA050314BF4FF4004100212343E9
:10385000002A14BF4FF4003200220B431343014AE5
:10386000136070BD0020044070B506460C46154636
:1038700022B90D484FF42271FEF7F4FB1CB90B4836
:10388000FEF71EFE04460A4B6D00013CB4FBF5F446
:1038900013EA04234FEA042504D0034840F2A5218B
:1038A000FEF7E0FB756170BDB2AE0000404105005F
:1038B000070080FF38B51E4B1E4D984204460ED0BF
:1038C000A8420CD003F50063984208D003F580634A
:1038D000984204D0184840F22E41FEF7C3FB40F650
:1038E000AA63E36041F20502002323606260134A89
:1038F000A3606361E364A26423666367A367E3670D
:103900000B4B9C4209D0AC4207D003F500639C42AC
:1039100003D003F580639C4201D10023236500237B
:10392000AC42A36502D0064A944200D1E36538BD9B
:103930000000014000040140B2AE0000F9FF0100A8
:10394000000C014038B52A4B984204460D4610D071
:1039500003F5806398420CD003F58063984208D049
:1039600003F58063984204D022484FF45671FEF765
:1039700079FB2046FFF79EFFA97B2A8A236800294E
:1039800042F0010214BF4FF48061002113430B4346
:103990002A7D23602368002A14BF4FF000520022C2
:1039A00013432360AB7C1BB1EB7C43F08003A36526
:1039B0002B7B43F480536360D5E901122046FFF767
:1039C00053FF6B7B0BB11023E3606B7D1BB123684E
:1039D00043F480332360AB7DEA7D1B07120503F0BF
:1039E000E04302F4E002134323662B78E36038BD22
:1039F00000000140B2AE000003695B06FCD54163E4
:103A0000704700002DE9F047374FDDE9088406468E
:103A1000154699468A4641B9082323704FF4D96365
:103A2000A360324B6760E360FEE75AB1531E134256
:103A300008D00823237040F2CB63A3602B4B676050
:103A4000E360FEE7FFF727F9002D08BF04254D4589
:103A500038BF4D46D6F808E06B1E13EA0E0FC5F1CD
:103A6000000202EA0E0208BF0025154409F1FF33E7
:103A7000AA4413EA0A0FC9F1000202EA0A0208BFC7
:103A80004FF0000902EB090372680132A2EB0E014C
:103A9000A3EB0E0E7145844615491AD2B8F1000FFA
:103AA00002D09B1AC8F80030162540F22273C4E9F0
:103AB0000231257067606046FFF7F3F840F2D76384
:103AC000A3600A4B25706760E36000252846BDE8C7
:103AD000F087B360002323704FF4E563C4E902313B
:103AE0006760FFF7DEF8F1E719AF0000AAAF00004A
:103AF00092AF000030B50C4685B011461D461BB98B
:103B0000039200F019F803990648019500230093E9
:103B100004220123002C18BF2046FFF773FF05B0D5
:103B200030BD00BF34100020024B00221A6003F0A9
:103B3000A7B800BF70CE0120FEE703F0B9B80000BF
:103B4000014B1860704700BF70CE01201FB5104BAD
:103B50001B78012B07D1FFF7A7F8B0B94FF0FF3062
:103B600005B05DF804FB684600F06CF99DF80010A4
:103B70000029F3D101206A4600F0F2FD9DF8000013
:103B8000003818BF01204042EAE76FF00500E7E780
:103B900020D301201FB5FFF787F848B9074B1B78E2
:103BA000012B02D0684600F051F84FF0FF3001E0E1
:103BB0006FF0050005B05DF804FB00BF20D30120C5
:103BC000704700002DE9F041044608B9FFF7B4FF43
:103BD000FFF76AF8194E1A4D074638B120232370B3
:103BE00040F21933C4E902356660FEE7154B1B78D5
:103BF000012B08D002232370666040F21D33C4E914
:103C00000235BDE8F081DFF8408098F80030F92BEC
:103C100005D91E232370666040F22233EFE7FFF7D9
:103C20003AF898F80030013388F80030FFF739F897
:103C30002770666040F22D33E1E700BFC4AF00009B
:103C4000CCB0000020D3012021D3012070B5044660
:103C500008B9FFF771FF264B1E78012E09D01323F8
:103C60002370244B636040F2F633A360224BE36081
:103C7000FEE7224B1B88022B09D8092323701D4B1A
:103C8000636040F20143A3601B4BE360FEE71C4D01
:103C90002B784BB11F232370164B636040F2044313
:103CA000A360154BE360FEE7FFF708F848B11F2358
:103CB0002370104B636040F20743A3600E4BE36038
:103CC000FEE701F059FD0F4B0F4A18700F4B2E7095
:103CD00018700C2358430E4B1B5813600D4A136089
:103CE00001F0F8FF03F00AF8BDE87040FFF724BFC9
:103CF00002D00120C4AF0000A1B0000040D40120D8
:103D000020D3012017D0012034D4012016D0012067
:103D100020D0012030D4012008B501F02DFDA0F104
:103D200040035842584108BD30B14368C1F8EC30F7
:103D30008368DB68C361704791F83030022B03D091
:103D4000072B05D0034B00E0034BC1F8EC30704764
:103D5000024BFAE7F0BB000039B0000040B00000B1
:103D6000044BC1F8EC3018B1826802B1D368C3616A
:103D7000704700BFF0BB00000023C0E9003303819F
:103D80007047036810B533B901220281C1E90933D4
:103D9000016041601CE0028991F8334001320281E8
:103DA00093F83320A2420CD85B6A002BF8D14B6207
:103DB00043688B625962ECE7C1E90932516299624A
:103DC00006E09A6A002AF7D1C1E9093299620160D6
:103DD00010BDC36A5BB19A68526A4AB9C3E902224C
:103DE0001A8A013A1A820023C0E90933C362704774
:103DF000D0E9092111B991629A60F1E74A620AB9E2
:103E0000D960EDE79162EBE738B5C56AAB685B6AEC
:103E10004BB1FFF7DEFFC562014605F10800BDE8C2
:103E20003840FFF7AEBF38BD054B40220021013AB4
:103E3000C3E90011198103F10C03F8D1704700BFE9
:103E400020D00120F8B5044608B9FFF775FE964D5D
:103E50006A68D2B12B68954E4BB92346296B9448BA
:103E60009200FFF747FE306023780BB1F8BD336056
:103E7000904B32681A60904A6B6813608F49904A81
:103E80009B0013600A6813440B602A89B2B1234671
:103E9000296B8C481201FFF72DFE8B4B186023789D
:103EA000002BE3D1894B8A4A18602B891380834900
:103EB000884A1B0113600A6813440B606A69002A70
:103EC00027D02B69844E002B62D12346296B83486F
:103ED0009200FFF70FFE30602378002BC6D1804B95
:103EE0002A7E1A707F4BEA691A607F4B32681A602B
:103EF0006B69EA6864215A43B2FBF1F27B490A60BC
:103F00007B4A6E4913607B4A9B0013600A68134426
:103F10000B606A6A002A28D02B6A774E002B39D1B1
:103F20002346296B75489200FFF7E4FD3060237843
:103F3000002B9BD1724B95F828201A70714B326878
:103F40001A606B6AEA6864215A43B2FBF1F26E4967
:103F50000A606E4AE96A13606D4A9B0013606D4AFD
:103F6000116056490A6813440B606B4E6B6B3360EB
:103F700002F078FF03F08AFD054668B10123237043
:103F8000664B63604FF4D773A360654BE3606DE7E6
:103F90003360A4E73360CDE703F078FE33689842DE
:103FA00009D2092323705D4B63604FF4D973A3607A
:103FB0005B4BE360FEE703F069FE3368594F9842BC
:103FC00040F0D8803D603268B2F57A7F07D900238F
:103FD0000020012104F066FE4FF47A754543524BF0
:103FE000524A1D6000231370514A1370514A1360E6
:103FF000514A1360514A1370514A1370514A204676
:10400000137002F02BFB0A23B0FBF3F04E4B186049
:104010002578002D7FF42AAF274A136853B125492C
:10402000086838B10146013B41F8045BFBD11168D7
:1040300002F07EF8454B00251D7001F095FBFFF75F
:10404000F3FE434B1D60434B1D80214B1B88002B0F
:1040500040F09C80404A00231360404A1380404A4D
:104060001360404A1380404A1360404A2046138040
:1040700001F0DAFF2378002B7FF4F8AE204601F040
:10408000F5FD2378002B7FF4F1AE204602F02EFDE3
:104090002378002B7FF4EAAE00F018FCFFF790FDC8
:1040A000334B01221A70E1E64810002078CE01203F
:1040B00049B000007CCE012080CE012074CE0120CA
:1040C00084CE01205CB0000088CE01208CCE01207F
:1040D00090CE012094CE0120A0CE01206EB0000031
:1040E00098CE01209CCE0120A4CE0120A8CE012094
:1040F000ACCE0120B0CE0120C0CE012087B00000A0
:10410000B8CE0120C4CE0120C8CE0120CCCE0120E3
:10411000D0CE0120BCCE0120B4CE0120C4AF00001F
:10412000D8B00000D8CE0120D4CE012020D3012069
:1041300021D3012030D4012034D4012016D0012015
:1041400017D0012028D3012024D3012042D40120FC
:10415000FCCF012000D0012010D0012014D001207C
:1041600018D001201CD001202CD3012030D30120F5
:1041700002D0012003F08AFD2B46024601210020D7
:1041800004F090FD3368584338601CE7204600F087
:10419000EFFF2378002B3FF45DAF67E690F83330F4
:1041A0000B490C22534330B5CA58CC1832B90125FB
:1041B0002581C0E90422C850606030BD25890135E1
:1041C00025810024026144615061C850F5E700BFB9
:1041D00020D0012090F833200B490C235A4330B5EE
:1041E0008C588B1834B901251D81C0E904448850CE
:1041F000586030BD1A8901321A81002202615A6862
:1042000042611061F4E700BF20D0012010B50446E0
:1042100090F8330001F0C0FA084B94F833201B7873
:104220009A42204606D1FFF7D5FF2046BDE8104050
:1042300004F071BCFFF7B2FFF7E700BF16D0012012
:1042400038B50C4691F8321007290546049807D86E
:104250000239052906D8DFE801F0060605052525FF
:10426000FF293AD138BDA267A4F87C30606415B14B
:104270002046FFF7AEFD21462846FFF771FD94F872
:104280003230032B06D104F1540003F039FC08B19D
:10429000FFF752FC2046FFF7B9FF0023238684F87E
:1042A0003230DFE7A267A4F87C30606415B12046A5
:1042B000FFF78FFD21462846FFF752FD94F8323074
:1042C000072B06D104F1540003F01AFC08B1FFF7E4
:1042D00033FC002323860423E1E7BDE83840FFF7E1
:1042E0002BBCD0E90032934210B50FD01C690021DD
:1042F000A24215BF6161C3E90412C3E90412C2E915
:10430000043116BF136102600460436010BD0000F9
:1043100070B50446D4E9043590F83300124A0C21F4
:10432000BDB973B94143551853502B816B6001F0EF
:1043300049FA0023C4E904332046BDE8704004F084
:1043400000BC484316183189013931815D61135031
:10435000EFE701FB00221189013911812B610BB9B3
:104360005560E6E75D61E4E720D0012013B504461F
:1043700070B1084B1B78012B0AD10023CDE9003323
:10438000054A416F0346054803F018FC044B1C60C6
:1043900002B010BD28D3012041460000E0CE01202C
:1043A000DCCE0120F8B50446A8B1114B1B78012BD7
:1043B00011D1056F0F4E7DB90F4B1F6803F066FCDE
:1043C00032682B46511E0D461946E7FB0051284620
:1043D00004F068FC6067F8BD03F058FC3268002305
:1043E000511E0E461946E5FB00613046F0E700BF5E
:1043F00028D30120B4CE012024D301202DE9F74396
:104400005E4B1B78012B00D0FEE75D4B93F80080DC
:10441000B8F1000F40F09680FEF73DFC594F5A4C22
:1044200097F80090594D064601F0A6F9402803463A
:10443000387000F08A800C20DFF85C814343B9F1CA
:10444000400F58F80330236003D101F035FDAFF37E
:10445000008022682B68DFF844919A4218D100202E
:1044600001F052FE012802D0286802F019FD99F8E7
:1044700000303BB12068436F0BB9FFF793FF206812
:10448000FFF774FF304603B0BDE8F043FEF709BC08
:1044900099F800301BB3DFF80891D9F800305B6F52
:1044A000EBB13B4801A903F0ADFB30B9D9F80030BE
:1044B000019A37485A6703F023FBD9F800305A6F46
:1044C0006AB993F8330000EB400008EB8000FFF777
:1044D00008FF3B780C22534358F8033023602268CE
:1044E000D2F8C0300133C2F8C0302A4A1368013311
:1044F00013603B78402B33D02B682268934215D051
:10450000A3B102F0D5FB2B68D3F8C83098421FD373
:1045100002F0CEFB2B68D3F8C830C01A2A68D2F854
:10452000CC30C2F8C4001844C2F8CC00246802F0B1
:10453000BFFBC4F8C80002F020FC3046FEF7B1FB18
:10454000BFF36F8F03B0BDE8F083C4F80080CCE701
:1045500002F0AEFB2B68D3F8C820D2431044DDE74D
:1045600001F0A2FC2C681CB102F0A2FBC4F8C80048
:1045700004F070F9AFF30080DDE700BF20D3012025
:1045800021D3012017D0012034D4012030D40120C0
:10459000E0CE012038D4012020D0012028D30120F2
:1045A000DCCE01202DE9F041044608B9FFF7C4FA3A
:1045B000FEF77AFB1E4F1F4E38B12023237040F2C6
:1045C0004533C4E902366760FEE71B4B1B78012BBD
:1045D00008D002232370676040F24933C4E90236F1
:1045E000BDE8F081DFF8548098F800302BB91F2324
:1045F0002370676040F24E33F0E7FEF74CFB98F80B
:104600000050013DEDB288F800503DB1FEF749FB86
:104610002D232370676040F25633DFE7FEF741FB3E
:10462000FFF7ECFE257067604FF45873D6E700BFC4
:10463000C4AF0000BEB0000020D3012021D3012070
:1046400038B50E4B1B78012B0D4616D1FEF723FB18
:1046500000236B670A4B1B6893F833300446094804
:1046600003EB430300EB8300FFF73BFE2046FEF71E
:1046700018FBBDE83840FFF7C1BE38BD28D3012084
:10468000DCCE012020D00120F8B50C46FEF703FB5C
:1046900094F83230013B0746062B48D8DFE803F098
:1046A000544704475B47040094F83030042B08BF9C
:1046B000E36A4FF0000608BF5D6AA667A4F87C6055
:1046C00018BF354602F0F4FA60642046FFF781FB1C
:1046D00094F83230032B31D1FFF798FD84F8326023
:1046E0004FF44073238615B395F8333095F8342092
:1046F0009A421CD094F833209A4218D1284600F0F0
:1047000023FF95F83430834228BF0346D9B295F889
:1047100033308B420BD0284601F048FE284603F088
:10472000C5FD95F8332001462E2003F06DFF384675
:10473000FEF7B7FABDE8F840FFF760BE072B04BFED
:10474000042384F83230CBE7002384F8323020464B
:10475000FFF75CFDEBE7042384F83230E7E7000065
:104760002DE9F04105460E4614460AB9FFF7E4F973
:10477000002323701E4B636040F27D33A3601D4B0A
:10478000E360FEF788FADFF880800746E6B1C8F8F4
:104790000060194B012D1A781FD0012A0FD1174C38
:1047A00017482168002574311D7003F02BFA08B1F9
:1047B00023685D67124803F0A3F90023236038469D
:1047C000BDE8F041FEF76DBA204601F047FF0A232D
:1047D000B0FBF3F0C8F80000DBE7002AEFD1094C8A
:1047E0001D702068FFF7DEFD2068FFF7BFFDE6E7DC
:1047F000C4AF0000A9B0000028D30120DCCE012006
:10480000E0CE012030D4012024D30120F7B50446A6
:104810000D4611B303F03AFA114B1A680026571EE1
:1048200046F1FF31E5FB00713346384604F03AFAB1
:10483000CDE9006601460B4A234604F1540003F01B
:10484000BDF908B1FFF778F90323204684F8323028
:1048500003B0BDE8F040FFF75BBD0223F5E700BF02
:10486000B4CE01208946000037B5144D0B461146E1
:104870002A6882F83030002382F83130104A1278EA
:1048800004463AB10F4A104812680191536703F089
:1048900037F901992868FFF7B9FF64B1296804F175
:1048A0000800CC62FFF76DFA2968204603B0BDE826
:1048B0003040FFF739BA2B68DC62F5E730D40120CD
:1048C00028D30120DCCE0120E0CE0120774B1B78DD
:1048D00082B0DBB28DF80530754B1B68DBB28DF80A
:1048E0000730744B1B78DBB28DF80530724B1B78A8
:1048F000DBB28DF80530714B1B68DBB28DF80730E9
:104900006F4B1B6ADBB28DF807306E4B1B78DBB246
:104910008DF805306C4B1B78DBB28DF805306B4B96
:104920001B88DBB28DF80630694B1B88DBB28DF833
:104930000630684B1B78DBB28DF80530664B1B8860
:10494000DBB28DF80630654B1B88DBB28DF8063084
:10495000634B1B88DBB28DF80630624B93F828302E
:10496000DBB28DF80730604B1B78DBB28DF8053079
:104970005E4B1B88DBB28DF806305D4B1B88DBB2CB
:104980008DF806305B4B1B88DBB28DF806305A4B36
:104990001B88DBB28DF80630584B1B88DBB28DF8D4
:1049A0000630574B1B88DBB28DF80630554B5B8DBC
:1049B000DBB28DF80730544B1B78DBB28DF8053035
:1049C000524B1B88DBB28DF80630514B1B78DBB2A3
:1049D0008DF806304F4B1B6ADBB28DF807304E4B1B
:1049E0001B78DBB28DF805304C4B1B88DBB28DF8A1
:1049F00006304B4B1B88DBB28DF80630494B1B68E9
:104A0000DBB28DF80730484B1B78DBB28DF80630EF
:104A1000464B1B78DBB28DF80530454B1B78DBB27B
:104A20008DF80530434B1B78DBB28DF80530424BD7
:104A30001B78DBB28DF80530404B1B78DBB28DF86C
:104A400005303F4B1B78DBB28DF805303D4B1B88A2
:104A5000DBB28DF806303C4B1B78DBB28DF80530AD
:104A60003A4B1B88DBB28DF80630394B1B88DBB222
:104A70008DF80630374B1B78DBB28DF80530364B9E
:104A80001B88DBB28DF80630344B9B8CDBB28DF883
:104A90000730334B1B88DBB28DF806309DF80530AC
:104AA0009DF806309DF8073002B07047881000204E
:104AB0008410002080100020FCCE01208C100020EB
:104AC00000CF01209010002028CF0120921000205C
:104AD00094100020961000209C10002098100020B8
:104AE0009A1000202CCF01209E100020A010002042
:104AF000A2100020A4100020A6100020A810002062
:104B0000AA1000205CCF0120AC100020AE100020C5
:104B1000B81000208CCF0120B9100020BA1000205E
:104B2000B0100020B4100020BE100020BC100020E7
:104B3000BD100020C2100020C3100020C5100020AE
:104B4000C4100020C6100020C8100020C010002093
:104B5000CA100020CC100020CE100020B4CF0120BD
:104B6000D01000202DE9F041044608B9FEF7E4FF1B
:104B7000164B174F1B78174E012B0BD002232370B7
:104B80004FF43A73C4E9023667604FF000084046BC
:104B9000BDE8F081FEF788F8054638B12023237080
:104BA00040F2ED23C4E902366760FEE7FEF773F8D2
:104BB000094B1B68D3F8A880FEF773F840F2F22384
:104BC000C4E9023625706760E1E700BF20D3012009
:104BD000DFB000005FB1000030D4012010B4074CFA
:104BE0002468A4F8AC200022C4F8A410C4F8A820BB
:104BF00001215DF8044B1A46FFF736BE30D4012080
:104C00002DE9F04F2DED028B83B0DDE90E6408EE47
:104C1000102A05468A4698460CB9FEF78DFF0FFA12
:104C200088F3002B0093C0F25081FEF73DF8002876
:104C300000F04681202323709C4B636040F23513C3
:104C4000A3609B4BE360FEE71F232370974B6360D9
:104C500040F23913A360964BE360FEE70223237012
:104C6000924B63604FF49F73A360914BE3604FF0EE
:104C7000000B57E047F6FF6308EA0303581E0128BC
:104C80000DD9042B0BD0082B09D008232370874B98
:104C900063604FF4A373A360854BE360FEE728686D
:104CA000844B984209D00C232370804B63604FF4EF
:104CB000AC73A3607E4BE360FEE708F4807301935E
:104CC0000EB100233360FDF7E6FF08F00F09B9F1DC
:104CD000040F074607D0B9F1080F42D0FDF7E1FFF6
:104CE000FEF72AFF7AE02A6A3AEA020302EA0A0B8E
:104CF0001ED1019B13B122EA0B022A626E4A12688E
:104D00000AB1C2F8A8B00EB16A6A32603846FDF73F
:104D1000C8FF00222270654A62604FF4BB72A26035
:104D2000634AE260584603B0BDEC028BBDE8F08FE9
:104D3000009B002B08DAFDF7B4FF1D2323705B4BAB
:104D4000636040F27D138FE75C4B1B78002B3BD0F8
:104D5000FDF7A7FF2D232370544B63604FF4C273FC
:104D600082E72A6A12EA0A0B16D0019B13B122EAE3
:104D70000B022A62504A12680AB1C2F8A8B00EB1FA
:104D80006A6A32603846FDF78CFF00222270474A7B
:104D900062604FF4D172C2E7009B002B08DAFDF786
:104DA00080FF1D222270414A626040F2A912B6E7DC
:104DB000424B1B7843B1FDF774FF2D2222703B4A12
:104DC00062604FF4D872AAE7284618EE103A4246BD
:104DD0005146FFF703FF3846FDF763FF364FFFF7F5
:104DE0000DFBFDF758FF3B6893F83120032A4BD8A1
:104DF000DFE802F002263E320EB15B6C3360002326
:104E000023702A4B636040F22D23A360284BE3609C
:104E10003B68D3F8A8B0019B4BB1B9F1040F02D0A5
:104E2000B9F1080F3AD12A6A22EA0B022A62FDF789
:104E300038FF002222701D4A626040F26F226EE746
:104E40000EB15B6C3360FDF72CFF21232370174BF1
:104E500063604FF40E7307E70EB100233360FDF774
:104E600020FF22232370114B636040F24123FBE6B5
:104E70000EB15B6C3360FDF714FF312323700B4BD5
:104E800063604FF41373EFE60090FDF70AFFFEF73F
:104E900053FE23780098002BBAD0E8E60090FDF787
:104EA00000FFFEF749FE0098C1E700BFDFB0000039
:104EB00075B10000464C414730D4012021D3012078
:104EC000FDF7FCFE00287FF4BFAE094B1B78012BD9
:104ED0007FF4C4AE002D7FF4CDAE0A232370054BC2
:104EE000636040F24313A360034BE360FEE700BF3F
:104EF00020D30120DFB0000075B10000054B064A49
:104F0000C36100234361136883610BB9106070476C
:104F10005861FBE7F0BB0000FCCF01202DE9F84F02
:104F200005460F4693461C460BB9FEF705FEFDF7F6
:104F3000BBFEDFF88490DFF88480064638B120237A
:104F400023705523C4E90238C4F80490FEE73DB944
:104F50000A2323705823C4E90238C4F80490FEE7FA
:104F6000FDF799FE282231468246284604F06AF869
:104F70000F4BC5F820B0C5E9003705F10800FEF772
:104F8000FBFE2846FFF7BAFF0A4A13880133138055
:104F900029463A46372003F043FE5046FDF781FE8E
:104FA00070232670C4E90238C4F80490BDE8F88F75
:104FB000464C414700D00120DFB0000080B1000026
:104FC00010B50023038690F83230C0F8A8100446CC
:104FD0004264072B1AD8DFE803F0121204041212FD
:104FE0001717032B05D1543002F08AFD08B1FEF7E4
:104FF000A3FD2046FFF70AF9002384F8323020464B
:10500000BDE81040FEF7E5BE0423F6E7FEF794FD89
:10501000F5E700002DE9F84305460F4616461C4605
:105020000BB9FEF789FD4E4B1B78012B0CD00223E8
:1050300023704C4B636040F23233A3604A4BE36011
:1050400000252846BDE8F8834DB90A232370454B57
:10505000636040F23733A360434BE360FEE747F6FB
:10506000FE731E4209D0082323703E4B636040F25A
:105070003A33A3603C4BE360FEE72A683B4B9A421D
:1050800009D00C232370374B63604FF45073A36037
:10509000354BE360FEE701F00BFE8146FDF7FBFDBB
:1050A000B6F5004F80460BD048F201039E421BD05C
:1050B00036B1012E18D0FDF7F4FDFEF73DFD02E0FC
:1050C000296A39432962AF68C5F8249087B94046F8
:1050D000FDF7E7FD234B636040F262332770A36066
:1050E000214B2D6AE360ACE7296A21EA0701E9E771
:1050F00038467F6AB0F8AC3003F00F03042B07D0BA
:10510000082B0FD04046FDF7CCFDFEF715FD0EE055
:10511000D0F8A4102B6A31EA030308D14A46FFF7FE
:105120004FFF04E0296AD0F8A4301940F6D1002FCF
:10513000DED14046FDF7B5FD330401D4FFF75EF93B
:10514000FDF7A9FD2D6AFDF7ACFD00232370054B8B
:10515000636040F2A333A360034BE36071E700BFD9
:1051600020D30120DFB0000054B10000464C41477D
:10517000154BF0B51C68154B1E880025721E04F1F6
:10518000100192B22B46AFB2BA4213D8110104EB10
:105190000212635053601381D3600D4A1381D38090
:1051A0009680146003700B4B43605D2383600A4B51
:1051B000C360F0BD41E9041321F8083C41F8043C08
:1051C00001351031DFE700BF8CCE012090CE0120E9
:1051D00004D001208DB1000001B20000428910B559
:1051E00082B1094B01681C680C6041681960D9885C
:1051F000891AD9809988114499800023C0E9003325
:1052000043818381104610BD04D0012038B5044687
:105210000D461022002103F015FF258138BD000046
:105220002DE9F74F0C9C06468A4617461D460CB9D9
:10523000FEF782FCFDF738FD48B120232370864B32
:10524000636040F23313A360844BE360FEE74EB922
:105250000A232370804B63604FF49B73A3607F4BE2
:10526000E360FEE7C7F30E034BB1082323707A4BCC
:10527000636040F23913A360784BE360FEE7326865
:10528000774B9A4209D00C232370734B636040F232
:105290003D13A360714BE360FEE73FB2002F0CDBD0
:1052A000FDF70CFD48B11F2323706B4B63604FF477
:1052B000A073A360694BE360FEE76A4B93F800902C
:1052C000B9F1010F1CD1FDF7E6FC96F82830DFF8A4
:1052D0009CB18046F3B9DBF80030736286F8289001
:1052E0000DB1F26A2A609A6B326240469E63FDF706
:1052F000D8FC00232370584B63604FF4AA7305E079
:1053000002232370544B636040F24513A360534B58
:10531000E36014E0D6F82490DBF80020914521D119
:10532000FF2BDFF834914D4F0CD1FDF7BAFC1E2353
:105330002370C4F8049040F25D13C4E9023703B04F
:10534000BDE8F08F013386F828300DB1F36A2B6089
:105350004046FDF7A6FC23232370C4F8049040F2D6
:105360006913EAE7002F0BDAFDF79BFC0DB1002370
:105370002B601D232370384B63604FF4BB73C5E76C
:10538000394B1B785BB1FDF78CFC0DB100232B6012
:105390002D232370304B63604FF4C173B6E792F84E
:1053A000331099F833308B420BD9484600F0FEFF9A
:1053B000484602F07BFF99F8332001462D2003F088
:1053C00023F9524604213046FFF74EFA4046FDF7D6
:1053D00068FCFFF713F8FDF75EFCDBF8003093F88C
:1053E0003120032A32D8DFE802F00213271D0DB165
:1053F0005B6C2B6000232370174B63604FF4D073FA
:10540000A360164BE36003B0BDE8F04FFDF749BC65
:105410000DB15B6C2B60212323700F4B63604FF445
:10542000D573EDE70DB100232B60222323700A4BC7
:1054300063604FF4DA73E3E70DB15B6C2B603123EB
:105440002370054B63604FF4DF73D9E70190FEF7DB
:1054500073FB0198D7E700BF10B2000092B20000C2
:105460004D55545820D3012021D3012030D40120A0
:10547000054B064AC36100234361136883610BB97E
:10548000106070475861FBE7F0BB000010D00120AE
:105490002DE9F04705460F4614460AB9FEF74CFBC6
:1054A000FDF702FCDFF88090DFF88080064638B117
:1054B000202323705223C4E90238C4F80490FEE785
:1054C0003DB90A2323705523C4E90238C4F8049077
:1054D000FEE7FDF7E0FB302231468246284603F026
:1054E000B1FD0F4B05F10800C5E90037FEF744FC9C
:1054F0002846FFF7BDFF0B4A138801331380294666
:105500003A46292003F08CFB5046FDF7CAFB6C237A
:105510002670C4E90238C4F80490BDE8F08700BFE3
:105520004D55545814D0012010B200009EB2000016
:10553000836B00F138028B42186A01D1106070470A
:1055400003F120020346F6E7836B3F2003B970475F
:105550009A6822B192F83320904228BF10461B6A05
:10556000F4E700002DE9F04F054685B08B46144660
:105570000AB9FEF7E1FAFDF797FBDFF89481604F77
:1055800040B12023237040F25723C4E90237C4F806
:105590000480FEE745B90A23237040F25A23C4E988
:1055A0000237C4F80480FEE7CBF30E0343B10823AF
:1055B000237040F25D23C4E90237C4F80480FEE79B
:1055C0002A68504B9A4208D00C23237040F2612382
:1055D000C4E90237C4F80480FEE74B4B1B78012B6B
:1055E0000AD002232370C4F8048040F26523C4E982
:1055F000023705B0BDE8F08FDFF818A1FDF74BFBCF
:105600006A6ADAF800309A42814608D0FDF749FB11
:105610001B232370C4F804804FF41B73E7E701F0E9
:1056200047FB95F828300290013BDBB2E86285F831
:1056300028304BB14846FDF734FB23232370C4F8D0
:10564000048040F27D23D2E7DAF800002946FFF714
:105650006FFFAE685EB96E6285F828604846FDF758
:1056600020FB2670C4F8048040F28A23BFE7DAF8F2
:10567000001091F8333091F834600393B34220D096
:105680000846FFF761FFB04228BF3046039BC6B211
:10569000B34216D20846FEF73BFEDAF8000080F867
:1056A000336002F003FE324601462E2002F0ACFFCA
:1056B000304600F071F8DAF80000FEF78BFD134B6E
:1056C0001E70A9686962012385F828308B6B2B62F4
:1056D000029B8D63009300231A462846FEF7B0FD17
:1056E0004846FDF7DEFA1BF4004F01D1FEF786FEB7
:1056F00000232370C4F8048040F2AD2377E700BF95
:1057000086B200004D55545820D3012016D00120F8
:1057100010B2000030D401202DE9F341846B05461E
:10572000012714B902B0BDE8F081D4F8208001F05F
:10573000BFFA2146E06206462846FFF7F9FEA16857
:1057400021B984F8281061624446EAE784F8287099
:105750008B6B2362002365621A468C632046009699
:10576000FEF76EFDF0E70000024B0022C3E90022C5
:10577000704700BFE4CF012008B5064B186828B970
:10578000586801F0AFFA2030C0B208BD01F0AAFAA3
:10579000FAE700BFE4CF01201F28094A07D84FF0DD
:1057A000004323FA00F0136803431360704701239A
:1057B000C0F13F0003FA00F053681843506070478F
:1057C000E4CF01201F280A4B08D84FF0004222FAEC
:1057D00000F01A6822EA00021A6070470122C0F144
:1057E0003F0002FA00F05A6822EA00025A6070474D
:1057F000E4CF01202DE9F3470A9C07468946164667
:105800001D460CB9FEF798F90FFA86FABAF1000FA7
:105810000ADABFB90A2323706A4B63604FF49373AB
:10582000A360694BE360FEE7FDF73EFA0028F0D085
:1058300020232370634B63604FF49173A360624B2A
:10584000E360FEE7C6F30E064EB1082323705D4BFE
:10585000636040F22913A3605B4BE360FEE73A68A4
:105860005A4B9A4209D00C232370564B636040F286
:105870002D13A360544BE360FEE7BAF1000F0CDB7D
:10588000FDF71CFA48B11F2323704E4B63604FF4A1
:105890009873A3604C4BE360FEE74D4B1B78012BE4
:1058A00017D1FDF7F8F93E6A804606B3013E3E6225
:1058B0000DB17B6A2B6040463E6AFDF7F2F900238A
:1058C0002370404B636040F24313A3603E4BE360A0
:1058D00009E0022323703B4B636040F23513A36061
:1058E000394BE3600026304602B0BDE8F087BAF1DC
:1058F000000F0CDA05B12E6040463E6AFDF7D1F983
:105900001D2323702F4B636040F25113DDE7314BB1
:105910001B785BB105B12E604046FDF7C2F92D231F
:105920002370284B636040F25D13CEE74A460621A0
:105930003846FEF799FF4046FDF7B3F9FEF75EFDE6
:10594000FDF7A9F9244B1B6893F83120032A31D8BD
:10595000DFE802F00212261C0DB15B6C2B60002305
:105960002370184B63604FF4BA73A360164BE36067
:105970003E6AFDF796F9B6E70DB15B6C2B6021230B
:105980002370104B63604FF4BF73EEE70DB100233B
:105990002B60222323700B4B63604FF4C473E4E746
:1059A0000DB15B6C2B6031232370064B63604FF4A9
:1059B000C973DAE70190FDF774F9FEF7BDF80198B5
:1059C000D6E700BFACB200002AB3000053454D41FA
:1059D00020D3012021D3012030D401202DE9F34729
:1059E0000646884614460AB9FEF7A6F84EB90A23B9
:1059F00023703E4B636040F22623A3603C4BE36080
:105A0000FEE747F6FF5518EA050509D0082323707D
:105A1000364B636040F22923A360354BE360FEE719
:105A20003268344B9A4209D00C2323702F4B6360A9
:105A300040F22F23A3602E4BE360FEE72E4B1B7832
:105A4000012B09D002232370284B636040F23323DB
:105A5000A360274BE36038E001F02AF98146FDF7A7
:105A60001AF9B7680546F7B108F4007A00233946F9
:105A70001A467F6ACDF800903046FEF7E1FBBAF196
:105A8000000F01D0002FF1D12846FDF70AF918F4D4
:105A9000004F01D1FEF7B2FC144B63600025257066
:105AA00040F26523D4E7356ADFF840A0DFF8408094
:105AB0006B1C0ED1FDF7F5F81E2323704FF4117304
:105AC000C4E90238C4F804A03D46284602B0BDE847
:105AD000F0870135C6E90859FDF7E3F840F24F2396
